{
  "_format": "hh-sol-artifact-1",
  "contractName": "AdvertiseNFT",
  "sourceName": "contracts/AdvertiseNFT.sol",
  "abi": [
    {
      "inputs": [
        {
          "internalType": "address",
          "name": "_advertiseContract",
          "type": "address"
        }
      ],
      "stateMutability": "nonpayable",
      "type": "constructor"
    },
    {
      "anonymous": false,
      "inputs": [
        {
          "indexed": true,
          "internalType": "address",
          "name": "owner",
          "type": "address"
        },
        {
          "indexed": true,
          "internalType": "address",
          "name": "approved",
          "type": "address"
        },
        {
          "indexed": true,
          "internalType": "uint256",
          "name": "tokenId",
          "type": "uint256"
        }
      ],
      "name": "Approval",
      "type": "event"
    },
    {
      "anonymous": false,
      "inputs": [
        {
          "indexed": true,
          "internalType": "address",
          "name": "owner",
          "type": "address"
        },
        {
          "indexed": true,
          "internalType": "address",
          "name": "operator",
          "type": "address"
        },
        {
          "indexed": false,
          "internalType": "bool",
          "name": "approved",
          "type": "bool"
        }
      ],
      "name": "ApprovalForAll",
      "type": "event"
    },
    {
      "anonymous": false,
      "inputs": [
        {
          "indexed": true,
          "internalType": "address",
          "name": "from",
          "type": "address"
        },
        {
          "indexed": true,
          "internalType": "address",
          "name": "to",
          "type": "address"
        },
        {
          "indexed": true,
          "internalType": "uint256",
          "name": "tokenId",
          "type": "uint256"
        }
      ],
      "name": "Transfer",
      "type": "event"
    },
    {
      "inputs": [],
      "name": "advertiseContract",
      "outputs": [
        {
          "internalType": "address",
          "name": "",
          "type": "address"
        }
      ],
      "stateMutability": "view",
      "type": "function"
    },
    {
      "inputs": [
        {
          "internalType": "address",
          "name": "to",
          "type": "address"
        },
        {
          "internalType": "uint256",
          "name": "tokenId",
          "type": "uint256"
        }
      ],
      "name": "approve",
      "outputs": [],
      "stateMutability": "nonpayable",
      "type": "function"
    },
    {
      "inputs": [
        {
          "internalType": "address",
          "name": "owner",
          "type": "address"
        }
      ],
      "name": "balanceOf",
      "outputs": [
        {
          "internalType": "uint256",
          "name": "",
          "type": "uint256"
        }
      ],
      "stateMutability": "view",
      "type": "function"
    },
    {
      "inputs": [
        {
          "internalType": "uint256",
          "name": "_tokenId",
          "type": "uint256"
        }
      ],
      "name": "burn",
      "outputs": [],
      "stateMutability": "nonpayable",
      "type": "function"
    },
    {
      "inputs": [],
      "name": "campaignName",
      "outputs": [
        {
          "internalType": "string",
          "name": "",
          "type": "string"
        }
      ],
      "stateMutability": "view",
      "type": "function"
    },
    {
      "inputs": [
        {
          "internalType": "uint256",
          "name": "tokenId",
          "type": "uint256"
        }
      ],
      "name": "getApproved",
      "outputs": [
        {
          "internalType": "address",
          "name": "",
          "type": "address"
        }
      ],
      "stateMutability": "view",
      "type": "function"
    },
    {
      "inputs": [
        {
          "internalType": "uint256",
          "name": "_tokenId",
          "type": "uint256"
        }
      ],
      "name": "getMetadataByTokenId",
      "outputs": [
        {
          "components": [
            {
              "internalType": "string",
              "name": "campaign_name",
              "type": "string"
            },
            {
              "internalType": "string",
              "name": "uri",
              "type": "string"
            },
            {
              "internalType": "uint256",
              "name": "value",
              "type": "uint256"
            }
          ],
          "internalType": "struct BaseAdvertise.NFTmetadata",
          "name": "_NFTmetadata",
          "type": "tuple"
        }
      ],
      "stateMutability": "view",
      "type": "function"
    },
    {
      "inputs": [
        {
          "internalType": "address",
          "name": "owner",
          "type": "address"
        },
        {
          "internalType": "address",
          "name": "operator",
          "type": "address"
        }
      ],
      "name": "isApprovedForAll",
      "outputs": [
        {
          "internalType": "bool",
          "name": "",
          "type": "bool"
        }
      ],
      "stateMutability": "view",
      "type": "function"
    },
    {
      "inputs": [],
      "name": "name",
      "outputs": [
        {
          "internalType": "string",
          "name": "",
          "type": "string"
        }
      ],
      "stateMutability": "view",
      "type": "function"
    },
    {
      "inputs": [
        {
          "internalType": "uint256",
          "name": "tokenId",
          "type": "uint256"
        }
      ],
      "name": "ownerOf",
      "outputs": [
        {
          "internalType": "address",
          "name": "",
          "type": "address"
        }
      ],
      "stateMutability": "view",
      "type": "function"
    },
    {
      "inputs": [
        {
          "internalType": "address",
          "name": "from",
          "type": "address"
        },
        {
          "internalType": "address",
          "name": "to",
          "type": "address"
        },
        {
          "internalType": "uint256",
          "name": "tokenId",
          "type": "uint256"
        }
      ],
      "name": "safeTransferFrom",
      "outputs": [],
      "stateMutability": "nonpayable",
      "type": "function"
    },
    {
      "inputs": [
        {
          "internalType": "address",
          "name": "from",
          "type": "address"
        },
        {
          "internalType": "address",
          "name": "to",
          "type": "address"
        },
        {
          "internalType": "uint256",
          "name": "tokenId",
          "type": "uint256"
        },
        {
          "internalType": "bytes",
          "name": "data",
          "type": "bytes"
        }
      ],
      "name": "safeTransferFrom",
      "outputs": [],
      "stateMutability": "nonpayable",
      "type": "function"
    },
    {
      "inputs": [
        {
          "internalType": "address",
          "name": "operator",
          "type": "address"
        },
        {
          "internalType": "bool",
          "name": "approved",
          "type": "bool"
        }
      ],
      "name": "setApprovalForAll",
      "outputs": [],
      "stateMutability": "nonpayable",
      "type": "function"
    },
    {
      "inputs": [
        {
          "internalType": "address",
          "name": "_to",
          "type": "address"
        },
        {
          "internalType": "uint256",
          "name": "_tokenId",
          "type": "uint256"
        },
        {
          "components": [
            {
              "internalType": "string",
              "name": "campaign_name",
              "type": "string"
            },
            {
              "internalType": "string",
              "name": "uri",
              "type": "string"
            },
            {
              "internalType": "uint256",
              "name": "value",
              "type": "uint256"
            }
          ],
          "internalType": "struct BaseAdvertise.NFTmetadata",
          "name": "_NFTmetadata",
          "type": "tuple"
        }
      ],
      "name": "setMetadata",
      "outputs": [],
      "stateMutability": "nonpayable",
      "type": "function"
    },
    {
      "inputs": [
        {
          "internalType": "bytes4",
          "name": "interfaceId",
          "type": "bytes4"
        }
      ],
      "name": "supportsInterface",
      "outputs": [
        {
          "internalType": "bool",
          "name": "",
          "type": "bool"
        }
      ],
      "stateMutability": "view",
      "type": "function"
    },
    {
      "inputs": [],
      "name": "symbol",
      "outputs": [
        {
          "internalType": "string",
          "name": "",
          "type": "string"
        }
      ],
      "stateMutability": "view",
      "type": "function"
    },
    {
      "inputs": [
        {
          "internalType": "uint256",
          "name": "",
          "type": "uint256"
        }
      ],
      "name": "tokenIdToMetadata",
      "outputs": [
        {
          "internalType": "string",
          "name": "campaign_name",
          "type": "string"
        },
        {
          "internalType": "string",
          "name": "uri",
          "type": "string"
        },
        {
          "internalType": "uint256",
          "name": "value",
          "type": "uint256"
        }
      ],
      "stateMutability": "view",
      "type": "function"
    },
    {
      "inputs": [
        {
          "internalType": "uint256",
          "name": "tokenId",
          "type": "uint256"
        }
      ],
      "name": "tokenURI",
      "outputs": [
        {
          "internalType": "string",
          "name": "",
          "type": "string"
        }
      ],
      "stateMutability": "view",
      "type": "function"
    },
    {
      "inputs": [
        {
          "internalType": "address",
          "name": "from",
          "type": "address"
        },
        {
          "internalType": "address",
          "name": "to",
          "type": "address"
        },
        {
          "internalType": "uint256",
          "name": "tokenId",
          "type": "uint256"
        }
      ],
      "name": "transferFrom",
      "outputs": [],
      "stateMutability": "nonpayable",
      "type": "function"
    },
    {
      "inputs": [],
      "name": "value",
      "outputs": [
        {
          "internalType": "uint256",
          "name": "",
          "type": "uint256"
        }
      ],
      "stateMutability": "view",
      "type": "function"
    }
  ],
  "bytecode": "0x60806040523480156200001157600080fd5b506040516200354138038062003541833981810160405281019062000037919062000239565b6040518060400160405280600e81526020017f41697276657274697365204e46540000000000000000000000000000000000008152506040518060400160405280600481526020017f414e4654000000000000000000000000000000000000000000000000000000008152508160009080519060200190620000bb9291906200011f565b508060019080519060200190620000d49291906200011f565b50505080600960006101000a81548173ffffffffffffffffffffffffffffffffffffffff021916908373ffffffffffffffffffffffffffffffffffffffff16021790555050620002d0565b8280546200012d906200029a565b90600052602060002090601f0160209004810192826200015157600085556200019d565b82601f106200016c57805160ff19168380011785556200019d565b828001600101855582156200019d579182015b828111156200019c5782518255916020019190600101906200017f565b5b509050620001ac9190620001b0565b5090565b5b80821115620001cb576000816000905550600101620001b1565b5090565b600080fd5b600073ffffffffffffffffffffffffffffffffffffffff82169050919050565b60006200020182620001d4565b9050919050565b6200021381620001f4565b81146200021f57600080fd5b50565b600081519050620002338162000208565b92915050565b600060208284031215620002525762000251620001cf565b5b6000620002628482850162000222565b91505092915050565b7f4e487b7100000000000000000000000000000000000000000000000000000000600052602260045260246000fd5b60006002820490506001821680620002b357607f821691505b60208210811415620002ca57620002c96200026b565b5b50919050565b61326180620002e06000396000f3fe608060405234801561001057600080fd5b506004361061012c5760003560e01c806342966c68116100ad578063a22cb46511610071578063a22cb46514610343578063b88d4fde1461035f578063bf64db1d1461037b578063c87b56dd146103ad578063e985e9c5146103dd5761012c565b806342966c681461028b5780636352211e146102a757806370a08231146102d7578063736bf28d1461030757806395d89b41146103255761012c565b80631304edd1116100f45780631304edd1146101e9578063227c53ae1461020557806323b872dd146102355780633fa4f2451461025157806342842e0e1461026f5761012c565b806301ffc9a71461013157806306fdde03146101615780630724fda91461017f578063081812fc1461019d578063095ea7b3146101cd575b600080fd5b61014b60048036038101906101469190611ff5565b61040d565b604051610158919061203d565b60405180910390f35b6101696104ef565b60405161017691906120f1565b60405180910390f35b610187610581565b60405161019491906120f1565b60405180910390f35b6101b760048036038101906101b29190612149565b61060f565b6040516101c491906121b7565b60405180910390f35b6101e760048036038101906101e291906121fe565b610655565b005b61020360048036038101906101fe9190612419565b61076d565b005b61021f600480360381019061021a9190612149565b61089b565b60405161022c9190612538565b60405180910390f35b61024f600480360381019061024a919061255a565b6109f6565b005b610259610a56565b60405161026691906125bc565b60405180910390f35b6102896004803603810190610284919061255a565b610a5c565b005b6102a560048036038101906102a09190612149565b610a7c565b005b6102c160048036038101906102bc9190612149565b610a88565b6040516102ce91906121b7565b60405180910390f35b6102f160048036038101906102ec91906125d7565b610b3a565b6040516102fe91906125bc565b60405180910390f35b61030f610bf2565b60405161031c91906121b7565b60405180910390f35b61032d610c18565b60405161033a91906120f1565b60405180910390f35b61035d60048036038101906103589190612630565b610caa565b005b61037960048036038101906103749190612711565b610cc0565b005b61039560048036038101906103909190612149565b610d22565b6040516103a493929190612794565b60405180910390f35b6103c760048036038101906103c29190612149565b610e5c565b6040516103d491906120f1565b60405180910390f35b6103f760048036038101906103f291906127d9565b610f6f565b604051610404919061203d565b60405180910390f35b60007f80ac58cd000000000000000000000000000000000000000000000000000000007bffffffffffffffffffffffffffffffffffffffffffffffffffffffff1916827bffffffffffffffffffffffffffffffffffffffffffffffffffffffff191614806104d857507f5b5e139f000000000000000000000000000000000000000000000000000000007bffffffffffffffffffffffffffffffffffffffffffffffffffffffff1916827bffffffffffffffffffffffffffffffffffffffffffffffffffffffff1916145b806104e857506104e782611003565b5b9050919050565b6060600080546104fe90612848565b80601f016020809104026020016040519081016040528092919081815260200182805461052a90612848565b80156105775780601f1061054c57610100808354040283529160200191610577565b820191906000526020600020905b81548152906001019060200180831161055a57829003601f168201915b5050505050905090565b6007805461058e90612848565b80601f01602080910402602001604051908101604052809291908181526020018280546105ba90612848565b80156106075780601f106105dc57610100808354040283529160200191610607565b820191906000526020600020905b8154815290600101906020018083116105ea57829003601f168201915b505050505081565b600061061a8261106d565b6004600083815260200190815260200160002060009054906101000a900473ffffffffffffffffffffffffffffffffffffffff169050919050565b600061066082610a88565b90508073ffffffffffffffffffffffffffffffffffffffff168373ffffffffffffffffffffffffffffffffffffffff1614156106d1576040517f08c379a00000000000000000000000000000000000000000000000000000000081526004016106c8906128ec565b60405180910390fd5b8073ffffffffffffffffffffffffffffffffffffffff166106f06110b8565b73ffffffffffffffffffffffffffffffffffffffff16148061071f575061071e816107196110b8565b610f6f565b5b61075e576040517f08c379a00000000000000000000000000000000000000000000000000000000081526004016107559061297e565b60405180910390fd5b61076883836110c0565b505050565b600960009054906101000a900473ffffffffffffffffffffffffffffffffffffffff1673ffffffffffffffffffffffffffffffffffffffff163373ffffffffffffffffffffffffffffffffffffffff16146107fd576040517f08c379a00000000000000000000000000000000000000000000000000000000081526004016107f4906129ea565b60405180910390fd5b6108078383611179565b610815828260200151611197565b80600a60008481526020019081526020016000206000820151816000019080519060200190610845929190611e85565b506020820151816001019080519060200190610862929190611e85565b506040820151816002015590505080600001516007908051906020019061088a929190611e85565b508060400151600881905550505050565b6108a3611f0b565b600a60008381526020019081526020016000206040518060600160405290816000820180546108d190612848565b80601f01602080910402602001604051908101604052809291908181526020018280546108fd90612848565b801561094a5780601f1061091f5761010080835404028352916020019161094a565b820191906000526020600020905b81548152906001019060200180831161092d57829003601f168201915b5050505050815260200160018201805461096390612848565b80601f016020809104026020016040519081016040528092919081815260200182805461098f90612848565b80156109dc5780601f106109b1576101008083540402835291602001916109dc565b820191906000526020600020905b8154815290600101906020018083116109bf57829003601f168201915b505050505081526020016002820154815250509050919050565b610a07610a016110b8565b8261120b565b610a46576040517f08c379a0000000000000000000000000000000000000000000000000000000008152600401610a3d90612a7c565b60405180910390fd5b610a518383836112a0565b505050565b60085481565b610a7783838360405180602001604052806000815250610cc0565b505050565b610a8581611507565b50565b6000806002600084815260200190815260200160002060009054906101000a900473ffffffffffffffffffffffffffffffffffffffff169050600073ffffffffffffffffffffffffffffffffffffffff168173ffffffffffffffffffffffffffffffffffffffff161415610b31576040517f08c379a0000000000000000000000000000000000000000000000000000000008152600401610b2890612ae8565b60405180910390fd5b80915050919050565b60008073ffffffffffffffffffffffffffffffffffffffff168273ffffffffffffffffffffffffffffffffffffffff161415610bab576040517f08c379a0000000000000000000000000000000000000000000000000000000008152600401610ba290612b7a565b60405180910390fd5b600360008373ffffffffffffffffffffffffffffffffffffffff1673ffffffffffffffffffffffffffffffffffffffff168152602001908152602001600020549050919050565b600960009054906101000a900473ffffffffffffffffffffffffffffffffffffffff1681565b606060018054610c2790612848565b80601f0160208091040260200160405190810160405280929190818152602001828054610c5390612848565b8015610ca05780601f10610c7557610100808354040283529160200191610ca0565b820191906000526020600020905b815481529060010190602001808311610c8357829003601f168201915b5050505050905090565b610cbc610cb56110b8565b838361155a565b5050565b610cd1610ccb6110b8565b8361120b565b610d10576040517f08c379a0000000000000000000000000000000000000000000000000000000008152600401610d0790612a7c565b60405180910390fd5b610d1c848484846116c7565b50505050565b600a602052806000526040600020600091509050806000018054610d4590612848565b80601f0160208091040260200160405190810160405280929190818152602001828054610d7190612848565b8015610dbe5780601f10610d9357610100808354040283529160200191610dbe565b820191906000526020600020905b815481529060010190602001808311610da157829003601f168201915b505050505090806001018054610dd390612848565b80601f0160208091040260200160405190810160405280929190818152602001828054610dff90612848565b8015610e4c5780601f10610e2157610100808354040283529160200191610e4c565b820191906000526020600020905b815481529060010190602001808311610e2f57829003601f168201915b5050505050908060020154905083565b6060610e678261106d565b6000600660008481526020019081526020016000208054610e8790612848565b80601f0160208091040260200160405190810160405280929190818152602001828054610eb390612848565b8015610f005780601f10610ed557610100808354040283529160200191610f00565b820191906000526020600020905b815481529060010190602001808311610ee357829003601f168201915b505050505090506000610f11611723565b9050600081511415610f27578192505050610f6a565b600082511115610f5c578082604051602001610f44929190612bd6565b60405160208183030381529060405292505050610f6a565b610f658461173a565b925050505b919050565b6000600560008473ffffffffffffffffffffffffffffffffffffffff1673ffffffffffffffffffffffffffffffffffffffff16815260200190815260200160002060008373ffffffffffffffffffffffffffffffffffffffff1673ffffffffffffffffffffffffffffffffffffffff16815260200190815260200160002060009054906101000a900460ff16905092915050565b60007f01ffc9a7000000000000000000000000000000000000000000000000000000007bffffffffffffffffffffffffffffffffffffffffffffffffffffffff1916827bffffffffffffffffffffffffffffffffffffffffffffffffffffffff1916149050919050565b611076816117a2565b6110b5576040517f08c379a00000000000000000000000000000000000000000000000000000000081526004016110ac90612ae8565b60405180910390fd5b50565b600033905090565b816004600083815260200190815260200160002060006101000a81548173ffffffffffffffffffffffffffffffffffffffff021916908373ffffffffffffffffffffffffffffffffffffffff160217905550808273ffffffffffffffffffffffffffffffffffffffff1661113383610a88565b73ffffffffffffffffffffffffffffffffffffffff167f8c5be1e5ebec7d5bd14f71427d1e84f3dd0314c0f7b2291e5b200ac8c7c3b92560405160405180910390a45050565b61119382826040518060200160405280600081525061180e565b5050565b6111a0826117a2565b6111df576040517f08c379a00000000000000000000000000000000000000000000000000000000081526004016111d690612c6c565b60405180910390fd5b80600660008481526020019081526020016000209080519060200190611206929190611e85565b505050565b60008061121783610a88565b90508073ffffffffffffffffffffffffffffffffffffffff168473ffffffffffffffffffffffffffffffffffffffff16148061125957506112588185610f6f565b5b8061129757508373ffffffffffffffffffffffffffffffffffffffff1661127f8461060f565b73ffffffffffffffffffffffffffffffffffffffff16145b91505092915050565b8273ffffffffffffffffffffffffffffffffffffffff166112c082610a88565b73ffffffffffffffffffffffffffffffffffffffff1614611316576040517f08c379a000000000000000000000000000000000000000000000000000000000815260040161130d90612cfe565b60405180910390fd5b600073ffffffffffffffffffffffffffffffffffffffff168273ffffffffffffffffffffffffffffffffffffffff161415611386576040517f08c379a000000000000000000000000000000000000000000000000000000000815260040161137d90612d90565b60405180910390fd5b611391838383611869565b61139c6000826110c0565b6001600360008573ffffffffffffffffffffffffffffffffffffffff1673ffffffffffffffffffffffffffffffffffffffff16815260200190815260200160002060008282546113ec9190612ddf565b925050819055506001600360008473ffffffffffffffffffffffffffffffffffffffff1673ffffffffffffffffffffffffffffffffffffffff16815260200190815260200160002060008282546114439190612e13565b92505081905550816002600083815260200190815260200160002060006101000a81548173ffffffffffffffffffffffffffffffffffffffff021916908373ffffffffffffffffffffffffffffffffffffffff160217905550808273ffffffffffffffffffffffffffffffffffffffff168473ffffffffffffffffffffffffffffffffffffffff167fddf252ad1be2c89b69c2b068fc378daa952ba7f163c4a11628f55a4df523b3ef60405160405180910390a461150283838361186e565b505050565b61151081611873565b600060066000838152602001908152602001600020805461153090612848565b905014611557576006600082815260200190815260200160002060006115569190611f2c565b5b50565b8173ffffffffffffffffffffffffffffffffffffffff168373ffffffffffffffffffffffffffffffffffffffff1614156115c9576040517f08c379a00000000000000000000000000000000000000000000000000000000081526004016115c090612eb5565b60405180910390fd5b80600560008573ffffffffffffffffffffffffffffffffffffffff1673ffffffffffffffffffffffffffffffffffffffff16815260200190815260200160002060008473ffffffffffffffffffffffffffffffffffffffff1673ffffffffffffffffffffffffffffffffffffffff16815260200190815260200160002060006101000a81548160ff0219169083151502179055508173ffffffffffffffffffffffffffffffffffffffff168373ffffffffffffffffffffffffffffffffffffffff167f17307eab39ab6107e8899845ad3d59bd9653f200f220920489ca2b5937696c31836040516116ba919061203d565b60405180910390a3505050565b6116d28484846112a0565b6116de84848484611990565b61171d576040517f08c379a000000000000000000000000000000000000000000000000000000000815260040161171490612f47565b60405180910390fd5b50505050565b606060405180602001604052806000815250905090565b60606117458261106d565b600061174f611723565b9050600081511161176f576040518060200160405280600081525061179a565b8061177984611b27565b60405160200161178a929190612bd6565b6040516020818303038152906040525b915050919050565b60008073ffffffffffffffffffffffffffffffffffffffff166002600084815260200190815260200160002060009054906101000a900473ffffffffffffffffffffffffffffffffffffffff1673ffffffffffffffffffffffffffffffffffffffff1614159050919050565b6118188383611c88565b6118256000848484611990565b611864576040517f08c379a000000000000000000000000000000000000000000000000000000000815260040161185b90612f47565b60405180910390fd5b505050565b505050565b505050565b600061187e82610a88565b905061188c81600084611869565b6118976000836110c0565b6001600360008373ffffffffffffffffffffffffffffffffffffffff1673ffffffffffffffffffffffffffffffffffffffff16815260200190815260200160002060008282546118e79190612ddf565b925050819055506002600083815260200190815260200160002060006101000a81549073ffffffffffffffffffffffffffffffffffffffff021916905581600073ffffffffffffffffffffffffffffffffffffffff168273ffffffffffffffffffffffffffffffffffffffff167fddf252ad1be2c89b69c2b068fc378daa952ba7f163c4a11628f55a4df523b3ef60405160405180910390a461198c8160008461186e565b5050565b60006119b18473ffffffffffffffffffffffffffffffffffffffff16611e62565b15611b1a578373ffffffffffffffffffffffffffffffffffffffff1663150b7a026119da6110b8565b8786866040518563ffffffff1660e01b81526004016119fc9493929190612fbc565b602060405180830381600087803b158015611a1657600080fd5b505af1925050508015611a4757506040513d601f19601f82011682018060405250810190611a44919061301d565b60015b611aca573d8060008114611a77576040519150601f19603f3d011682016040523d82523d6000602084013e611a7c565b606091505b50600081511415611ac2576040517f08c379a0000000000000000000000000000000000000000000000000000000008152600401611ab990612f47565b60405180910390fd5b805181602001fd5b63150b7a0260e01b7bffffffffffffffffffffffffffffffffffffffffffffffffffffffff1916817bffffffffffffffffffffffffffffffffffffffffffffffffffffffff191614915050611b1f565b600190505b949350505050565b60606000821415611b6f576040518060400160405280600181526020017f30000000000000000000000000000000000000000000000000000000000000008152509050611c83565b600082905060005b60008214611ba1578080611b8a9061304a565b915050600a82611b9a91906130c2565b9150611b77565b60008167ffffffffffffffff811115611bbd57611bbc612243565b5b6040519080825280601f01601f191660200182016040528015611bef5781602001600182028036833780820191505090505b5090505b60008514611c7c57600182611c089190612ddf565b9150600a85611c1791906130f3565b6030611c239190612e13565b60f81b818381518110611c3957611c38613124565b5b60200101907effffffffffffffffffffffffffffffffffffffffffffffffffffffffffffff1916908160001a905350600a85611c7591906130c2565b9450611bf3565b8093505050505b919050565b600073ffffffffffffffffffffffffffffffffffffffff168273ffffffffffffffffffffffffffffffffffffffff161415611cf8576040517f08c379a0000000000000000000000000000000000000000000000000000000008152600401611cef9061319f565b60405180910390fd5b611d01816117a2565b15611d41576040517f08c379a0000000000000000000000000000000000000000000000000000000008152600401611d389061320b565b60405180910390fd5b611d4d60008383611869565b6001600360008473ffffffffffffffffffffffffffffffffffffffff1673ffffffffffffffffffffffffffffffffffffffff1681526020019081526020016000206000828254611d9d9190612e13565b92505081905550816002600083815260200190815260200160002060006101000a81548173ffffffffffffffffffffffffffffffffffffffff021916908373ffffffffffffffffffffffffffffffffffffffff160217905550808273ffffffffffffffffffffffffffffffffffffffff16600073ffffffffffffffffffffffffffffffffffffffff167fddf252ad1be2c89b69c2b068fc378daa952ba7f163c4a11628f55a4df523b3ef60405160405180910390a4611e5e6000838361186e565b5050565b6000808273ffffffffffffffffffffffffffffffffffffffff163b119050919050565b828054611e9190612848565b90600052602060002090601f016020900481019282611eb35760008555611efa565b82601f10611ecc57805160ff1916838001178555611efa565b82800160010185558215611efa579182015b82811115611ef9578251825591602001919060010190611ede565b5b509050611f079190611f6c565b5090565b60405180606001604052806060815260200160608152602001600081525090565b508054611f3890612848565b6000825580601f10611f4a5750611f69565b601f016020900490600052602060002090810190611f689190611f6c565b5b50565b5b80821115611f85576000816000905550600101611f6d565b5090565b6000604051905090565b600080fd5b600080fd5b60007fffffffff0000000000000000000000000000000000000000000000000000000082169050919050565b611fd281611f9d565b8114611fdd57600080fd5b50565b600081359050611fef81611fc9565b92915050565b60006020828403121561200b5761200a611f93565b5b600061201984828501611fe0565b91505092915050565b60008115159050919050565b61203781612022565b82525050565b6000602082019050612052600083018461202e565b92915050565b600081519050919050565b600082825260208201905092915050565b60005b83811015612092578082015181840152602081019050612077565b838111156120a1576000848401525b50505050565b6000601f19601f8301169050919050565b60006120c382612058565b6120cd8185612063565b93506120dd818560208601612074565b6120e6816120a7565b840191505092915050565b6000602082019050818103600083015261210b81846120b8565b905092915050565b6000819050919050565b61212681612113565b811461213157600080fd5b50565b6000813590506121438161211d565b92915050565b60006020828403121561215f5761215e611f93565b5b600061216d84828501612134565b91505092915050565b600073ffffffffffffffffffffffffffffffffffffffff82169050919050565b60006121a182612176565b9050919050565b6121b181612196565b82525050565b60006020820190506121cc60008301846121a8565b92915050565b6121db81612196565b81146121e657600080fd5b50565b6000813590506121f8816121d2565b92915050565b6000806040838503121561221557612214611f93565b5b6000612223858286016121e9565b925050602061223485828601612134565b9150509250929050565b600080fd5b7f4e487b7100000000000000000000000000000000000000000000000000000000600052604160045260246000fd5b61227b826120a7565b810181811067ffffffffffffffff8211171561229a57612299612243565b5b80604052505050565b60006122ad611f89565b90506122b98282612272565b919050565b600080fd5b600080fd5b600080fd5b600067ffffffffffffffff8211156122e8576122e7612243565b5b6122f1826120a7565b9050602081019050919050565b82818337600083830152505050565b600061232061231b846122cd565b6122a3565b90508281526020810184848401111561233c5761233b6122c8565b5b6123478482856122fe565b509392505050565b600082601f830112612364576123636122c3565b5b813561237484826020860161230d565b91505092915050565b6000606082840312156123935761239261223e565b5b61239d60606122a3565b9050600082013567ffffffffffffffff8111156123bd576123bc6122be565b5b6123c98482850161234f565b600083015250602082013567ffffffffffffffff8111156123ed576123ec6122be565b5b6123f98482850161234f565b602083015250604061240d84828501612134565b60408301525092915050565b60008060006060848603121561243257612431611f93565b5b6000612440868287016121e9565b935050602061245186828701612134565b925050604084013567ffffffffffffffff81111561247257612471611f98565b5b61247e8682870161237d565b9150509250925092565b600082825260208201905092915050565b60006124a482612058565b6124ae8185612488565b93506124be818560208601612074565b6124c7816120a7565b840191505092915050565b6124db81612113565b82525050565b600060608301600083015184820360008601526124fe8282612499565b915050602083015184820360208601526125188282612499565b915050604083015161252d60408601826124d2565b508091505092915050565b6000602082019050818103600083015261255281846124e1565b905092915050565b60008060006060848603121561257357612572611f93565b5b6000612581868287016121e9565b9350506020612592868287016121e9565b92505060406125a386828701612134565b9150509250925092565b6125b681612113565b82525050565b60006020820190506125d160008301846125ad565b92915050565b6000602082840312156125ed576125ec611f93565b5b60006125fb848285016121e9565b91505092915050565b61260d81612022565b811461261857600080fd5b50565b60008135905061262a81612604565b92915050565b6000806040838503121561264757612646611f93565b5b6000612655858286016121e9565b92505060206126668582860161261b565b9150509250929050565b600067ffffffffffffffff82111561268b5761268a612243565b5b612694826120a7565b9050602081019050919050565b60006126b46126af84612670565b6122a3565b9050828152602081018484840111156126d0576126cf6122c8565b5b6126db8482856122fe565b509392505050565b600082601f8301126126f8576126f76122c3565b5b81356127088482602086016126a1565b91505092915050565b6000806000806080858703121561272b5761272a611f93565b5b6000612739878288016121e9565b945050602061274a878288016121e9565b935050604061275b87828801612134565b925050606085013567ffffffffffffffff81111561277c5761277b611f98565b5b612788878288016126e3565b91505092959194509250565b600060608201905081810360008301526127ae81866120b8565b905081810360208301526127c281856120b8565b90506127d160408301846125ad565b949350505050565b600080604083850312156127f0576127ef611f93565b5b60006127fe858286016121e9565b925050602061280f858286016121e9565b9150509250929050565b7f4e487b7100000000000000000000000000000000000000000000000000000000600052602260045260246000fd5b6000600282049050600182168061286057607f821691505b6020821081141561287457612873612819565b5b50919050565b7f4552433732313a20617070726f76616c20746f2063757272656e74206f776e6560008201527f7200000000000000000000000000000000000000000000000000000000000000602082015250565b60006128d6602183612063565b91506128e18261287a565b604082019050919050565b60006020820190508181036000830152612905816128c9565b9050919050565b7f4552433732313a20617070726f76652063616c6c6572206973206e6f7420746f60008201527f6b656e206f776e6572206e6f7220617070726f76656420666f7220616c6c0000602082015250565b6000612968603e83612063565b91506129738261290c565b604082019050919050565b600060208201905081810360008301526129978161295b565b9050919050565b7f4e6f742041647665727469736520436f6e747261637400000000000000000000600082015250565b60006129d4601683612063565b91506129df8261299e565b602082019050919050565b60006020820190508181036000830152612a03816129c7565b9050919050565b7f4552433732313a2063616c6c6572206973206e6f7420746f6b656e206f776e6560008201527f72206e6f7220617070726f766564000000000000000000000000000000000000602082015250565b6000612a66602e83612063565b9150612a7182612a0a565b604082019050919050565b60006020820190508181036000830152612a9581612a59565b9050919050565b7f4552433732313a20696e76616c696420746f6b656e2049440000000000000000600082015250565b6000612ad2601883612063565b9150612add82612a9c565b602082019050919050565b60006020820190508181036000830152612b0181612ac5565b9050919050565b7f4552433732313a2061646472657373207a65726f206973206e6f74206120766160008201527f6c6964206f776e65720000000000000000000000000000000000000000000000602082015250565b6000612b64602983612063565b9150612b6f82612b08565b604082019050919050565b60006020820190508181036000830152612b9381612b57565b9050919050565b600081905092915050565b6000612bb082612058565b612bba8185612b9a565b9350612bca818560208601612074565b80840191505092915050565b6000612be28285612ba5565b9150612bee8284612ba5565b91508190509392505050565b7f45524337323155524953746f726167653a2055524920736574206f66206e6f6e60008201527f6578697374656e7420746f6b656e000000000000000000000000000000000000602082015250565b6000612c56602e83612063565b9150612c6182612bfa565b604082019050919050565b60006020820190508181036000830152612c8581612c49565b9050919050565b7f4552433732313a207472616e736665722066726f6d20696e636f72726563742060008201527f6f776e6572000000000000000000000000000000000000000000000000000000602082015250565b6000612ce8602583612063565b9150612cf382612c8c565b604082019050919050565b60006020820190508181036000830152612d1781612cdb565b9050919050565b7f4552433732313a207472616e7366657220746f20746865207a65726f2061646460008201527f7265737300000000000000000000000000000000000000000000000000000000602082015250565b6000612d7a602483612063565b9150612d8582612d1e565b604082019050919050565b60006020820190508181036000830152612da981612d6d565b9050919050565b7f4e487b7100000000000000000000000000000000000000000000000000000000600052601160045260246000fd5b6000612dea82612113565b9150612df583612113565b925082821015612e0857612e07612db0565b5b828203905092915050565b6000612e1e82612113565b9150612e2983612113565b9250827fffffffffffffffffffffffffffffffffffffffffffffffffffffffffffffffff03821115612e5e57612e5d612db0565b5b828201905092915050565b7f4552433732313a20617070726f766520746f2063616c6c657200000000000000600082015250565b6000612e9f601983612063565b9150612eaa82612e69565b602082019050919050565b60006020820190508181036000830152612ece81612e92565b9050919050565b7f4552433732313a207472616e7366657220746f206e6f6e20455243373231526560008201527f63656976657220696d706c656d656e7465720000000000000000000000000000602082015250565b6000612f31603283612063565b9150612f3c82612ed5565b604082019050919050565b60006020820190508181036000830152612f6081612f24565b9050919050565b600081519050919050565b600082825260208201905092915050565b6000612f8e82612f67565b612f988185612f72565b9350612fa8818560208601612074565b612fb1816120a7565b840191505092915050565b6000608082019050612fd160008301876121a8565b612fde60208301866121a8565b612feb60408301856125ad565b8181036060830152612ffd8184612f83565b905095945050505050565b60008151905061301781611fc9565b92915050565b60006020828403121561303357613032611f93565b5b600061304184828501613008565b91505092915050565b600061305582612113565b91507fffffffffffffffffffffffffffffffffffffffffffffffffffffffffffffffff82141561308857613087612db0565b5b600182019050919050565b7f4e487b7100000000000000000000000000000000000000000000000000000000600052601260045260246000fd5b60006130cd82612113565b91506130d883612113565b9250826130e8576130e7613093565b5b828204905092915050565b60006130fe82612113565b915061310983612113565b92508261311957613118613093565b5b828206905092915050565b7f4e487b7100000000000000000000000000000000000000000000000000000000600052603260045260246000fd5b7f4552433732313a206d696e7420746f20746865207a65726f2061646472657373600082015250565b6000613189602083612063565b915061319482613153565b602082019050919050565b600060208201905081810360008301526131b88161317c565b9050919050565b7f4552433732313a20746f6b656e20616c7265616479206d696e74656400000000600082015250565b60006131f5601c83612063565b9150613200826131bf565b602082019050919050565b60006020820190508181036000830152613224816131e8565b905091905056fea264697066735822122024375fc4497b397b5f758d60e40f696b35208588b0b413f9cd804b7d4546c62e64736f6c63430008080033",
  "linkReferences": {},
  "deployedLinkReferences": {}
}