{
  "_format": "hh-sol-artifact-1",
  "contractName": "Advertise",
  "sourceName": "contracts/Advertise.sol",
  "abi": [
    {
      "inputs": [
        {
          "internalType": "contract IWorldID",
          "name": "_worldId",
          "type": "address"
        }
      ],
      "stateMutability": "nonpayable",
      "type": "constructor"
    },
    {
      "inputs": [],
      "name": "InvalidNullifier",
      "type": "error"
    },
    {
      "anonymous": false,
      "inputs": [
        {
          "indexed": true,
          "internalType": "address",
          "name": "previousOwner",
          "type": "address"
        },
        {
          "indexed": true,
          "internalType": "address",
          "name": "newOwner",
          "type": "address"
        }
      ],
      "name": "OwnershipTransferred",
      "type": "event"
    },
    {
      "inputs": [
        {
          "internalType": "address",
          "name": "",
          "type": "address"
        },
        {
          "internalType": "uint256",
          "name": "",
          "type": "uint256"
        }
      ],
      "name": "addressToTokenId",
      "outputs": [
        {
          "internalType": "uint256",
          "name": "",
          "type": "uint256"
        }
      ],
      "stateMutability": "view",
      "type": "function"
    },
    {
      "inputs": [],
      "name": "advertiseNFT",
      "outputs": [
        {
          "internalType": "contract AdvertiseNFT",
          "name": "",
          "type": "address"
        }
      ],
      "stateMutability": "view",
      "type": "function"
    },
    {
      "inputs": [
        {
          "internalType": "address[]",
          "name": "_to",
          "type": "address[]"
        },
        {
          "components": [
            {
              "internalType": "string",
              "name": "campaign_name",
              "type": "string"
            },
            {
              "internalType": "string",
              "name": "uri",
              "type": "string"
            },
            {
              "internalType": "uint256",
              "name": "value",
              "type": "uint256"
            }
          ],
          "internalType": "struct BaseAdvertise.NFTmetadata",
          "name": "_NFTmetadata",
          "type": "tuple"
        }
      ],
      "name": "bulkAirdropERC721",
      "outputs": [],
      "stateMutability": "payable",
      "type": "function"
    },
    {
      "inputs": [
        {
          "internalType": "address",
          "name": "input",
          "type": "address"
        },
        {
          "internalType": "uint256",
          "name": "root",
          "type": "uint256"
        },
        {
          "internalType": "uint256",
          "name": "nullifierHash",
          "type": "uint256"
        },
        {
          "internalType": "uint256[8]",
          "name": "proof",
          "type": "uint256[8]"
        },
        {
          "internalType": "uint256",
          "name": "_tokenId",
          "type": "uint256"
        }
      ],
      "name": "claimAirdrop",
      "outputs": [],
      "stateMutability": "nonpayable",
      "type": "function"
    },
    {
      "inputs": [
        {
          "internalType": "address",
          "name": "_address",
          "type": "address"
        }
      ],
      "name": "getNFTIdsByAddress",
      "outputs": [
        {
          "internalType": "uint256[]",
          "name": "nfts",
          "type": "uint256[]"
        }
      ],
      "stateMutability": "view",
      "type": "function"
    },
    {
      "inputs": [],
      "name": "owner",
      "outputs": [
        {
          "internalType": "address",
          "name": "",
          "type": "address"
        }
      ],
      "stateMutability": "view",
      "type": "function"
    },
    {
      "inputs": [],
      "name": "renounceOwnership",
      "outputs": [],
      "stateMutability": "nonpayable",
      "type": "function"
    },
    {
      "inputs": [
        {
          "internalType": "address",
          "name": "_advertiseNFTAddress",
          "type": "address"
        }
      ],
      "name": "setAdvertiseNFT",
      "outputs": [],
      "stateMutability": "nonpayable",
      "type": "function"
    },
    {
      "inputs": [],
      "name": "tokenIdCounter",
      "outputs": [
        {
          "internalType": "uint256",
          "name": "",
          "type": "uint256"
        }
      ],
      "stateMutability": "view",
      "type": "function"
    },
    {
      "inputs": [
        {
          "internalType": "address",
          "name": "newOwner",
          "type": "address"
        }
      ],
      "name": "transferOwnership",
      "outputs": [],
      "stateMutability": "nonpayable",
      "type": "function"
    }
  ],
  "bytecode": "0x60c0604052600160a0908152503480156200001957600080fd5b5060405162001e4a38038062001e4a83398181016040528101906200003f9190620001ee565b6200005f62000053620000a460201b60201c565b620000ac60201b60201c565b600180819055508073ffffffffffffffffffffffffffffffffffffffff1660808173ffffffffffffffffffffffffffffffffffffffff1660601b815250505062000220565b600033905090565b60008060009054906101000a900473ffffffffffffffffffffffffffffffffffffffff169050816000806101000a81548173ffffffffffffffffffffffffffffffffffffffff021916908373ffffffffffffffffffffffffffffffffffffffff1602179055508173ffffffffffffffffffffffffffffffffffffffff168173ffffffffffffffffffffffffffffffffffffffff167f8be0079c531659141344cd1fd0a4f28419497f9722a3daafe3b4186f6b6457e060405160405180910390a35050565b600080fd5b600073ffffffffffffffffffffffffffffffffffffffff82169050919050565b6000620001a28262000175565b9050919050565b6000620001b68262000195565b9050919050565b620001c881620001a9565b8114620001d457600080fd5b50565b600081519050620001e881620001bd565b92915050565b60006020828403121562000207576200020662000170565b5b60006200021784828501620001d7565b91505092915050565b60805160601c60a051611c01620002496000396000610493015260006104560152611c016000f3fe6080604052600436106100915760003560e01c806398bdf6f51161005957806398bdf6f514610169578063a22c0caa14610194578063f2398638146101d1578063f2fde38b146101ed578063ff2651ab1461021657610091565b80631b6379f3146100965780635ef61144146100d35780636108687d146100fe578063715018a6146101275780638da5cb5b1461013e575b600080fd5b3480156100a257600080fd5b506100bd60048036038101906100b89190610de9565b61023f565b6040516100ca9190610e38565b60405180910390f35b3480156100df57600080fd5b506100e8610270565b6040516100f59190610eb2565b60405180910390f35b34801561010a57600080fd5b5061012560048036038101906101209190610ef4565b610296565b005b34801561013357600080fd5b5061013c610788565b005b34801561014a57600080fd5b5061015361079c565b6040516101609190610f80565b60405180910390f35b34801561017557600080fd5b5061017e6107c5565b60405161018b9190610e38565b60405180910390f35b3480156101a057600080fd5b506101bb60048036038101906101b69190610f9b565b6107cb565b6040516101c89190611086565b60405180910390f35b6101eb60048036038101906101e6919061112c565b610862565b005b3480156101f957600080fd5b50610214600480360381019061020f9190610f9b565b610af0565b005b34801561022257600080fd5b5061023d60048036038101906102389190610f9b565b610b74565b005b6005602052816000526040600020818154811061025b57600080fd5b90600052602060002001600091509150505481565b600460009054906101000a900473ffffffffffffffffffffffffffffffffffffffff1681565b600260015414156102dc576040517f08c379a00000000000000000000000000000000000000000000000000000000081526004016102d390611205565b60405180910390fd5b6002600181905550600460009054906101000a900473ffffffffffffffffffffffffffffffffffffffff1673ffffffffffffffffffffffffffffffffffffffff16636352211e826040518263ffffffff1660e01b815260040161033f9190610e38565b60206040518083038186803b15801561035757600080fd5b505afa15801561036b573d6000803e3d6000fd5b505050506040513d601f19601f8201168201806040525081019061038f919061123a565b73ffffffffffffffffffffffffffffffffffffffff163373ffffffffffffffffffffffffffffffffffffffff16146103fc576040517f08c379a00000000000000000000000000000000000000000000000000000000081526004016103f3906112b3565b60405180910390fd5b6002600084815260200190815260200160002060009054906101000a900460ff1615610454576040517f5d904cb200000000000000000000000000000000000000000000000000000000815260040160405180910390fd5b7f000000000000000000000000000000000000000000000000000000000000000073ffffffffffffffffffffffffffffffffffffffff16633bc778e3857f00000000000000000000000000000000000000000000000000000000000000006104da896040516020016104c6919061131b565b604051602081830303815290604052610bc0565b87610503306040516020016104ef919061131b565b604051602081830303815290604052610bc0565b886040518763ffffffff1660e01b815260040161052596959493929190611356565b60006040518083038186803b15801561053d57600080fd5b505afa158015610551573d6000803e3d6000fd5b5050505060016002600085815260200190815260200160002060006101000a81548160ff0219169083151502179055506000600460009054906101000a900473ffffffffffffffffffffffffffffffffffffffff1673ffffffffffffffffffffffffffffffffffffffff1663227c53ae836040518263ffffffff1660e01b81526004016105de9190610e38565b60006040518083038186803b1580156105f657600080fd5b505afa15801561060a573d6000803e3d6000fd5b505050506040513d6000823e3d601f19601f8201168201806040525081019061063391906115d8565b9050600081604001519050600460009054906101000a900473ffffffffffffffffffffffffffffffffffffffff1673ffffffffffffffffffffffffffffffffffffffff166342966c68846040518263ffffffff1660e01b81526004016106999190610e38565b600060405180830381600087803b1580156106b357600080fd5b505af11580156106c7573d6000803e3d6000fd5b5050505060003373ffffffffffffffffffffffffffffffffffffffff16826040516106f190611652565b60006040518083038185875af1925050503d806000811461072e576040519150601f19603f3d011682016040523d82523d6000602084013e610733565b606091505b5050905080610777576040517f08c379a000000000000000000000000000000000000000000000000000000000815260040161076e906116b3565b60405180910390fd5b505050600180819055505050505050565b610790610bf7565b61079a6000610c75565b565b60008060009054906101000a900473ffffffffffffffffffffffffffffffffffffffff16905090565b60035481565b6060600560008373ffffffffffffffffffffffffffffffffffffffff1673ffffffffffffffffffffffffffffffffffffffff16815260200190815260200160002080548060200260200160405190810160405280929190818152602001828054801561085657602002820191906000526020600020905b815481526020019060010190808311610842575b50505050509050919050565b600260015414156108a8576040517f08c379a000000000000000000000000000000000000000000000000000000000815260040161089f90611205565b60405180910390fd5b600260018190555060008383905014156108f7576040517f08c379a00000000000000000000000000000000000000000000000000000000081526004016108ee9061171f565b60405180910390fd5b82829050816040013561090a919061176e565b34101561094c576040517f08c379a000000000000000000000000000000000000000000000000000000000815260040161094390611814565b60405180910390fd5b60005b83839050811015610acc57600460009054906101000a900473ffffffffffffffffffffffffffffffffffffffff1673ffffffffffffffffffffffffffffffffffffffff16631304edd18585848181106109ab576109aa611834565b5b90506020020160208101906109c09190610f9b565b836003546109ce9190611863565b856040518463ffffffff1660e01b81526004016109ed939291906119f3565b600060405180830381600087803b158015610a0757600080fd5b505af1158015610a1b573d6000803e3d6000fd5b5050505060056000858584818110610a3657610a35611834565b5b9050602002016020810190610a4b9190610f9b565b73ffffffffffffffffffffffffffffffffffffffff1673ffffffffffffffffffffffffffffffffffffffff16815260200190815260200160002081600354610a939190611863565b90806001815401808255809150506001900390600052602060002001600090919091909150558080610ac490611a31565b91505061094f565b5082829050600354610ade9190611863565b60038190555060018081905550505050565b610af8610bf7565b600073ffffffffffffffffffffffffffffffffffffffff168173ffffffffffffffffffffffffffffffffffffffff161415610b68576040517f08c379a0000000000000000000000000000000000000000000000000000000008152600401610b5f90611aec565b60405180910390fd5b610b7181610c75565b50565b610b7c610bf7565b80600460006101000a81548173ffffffffffffffffffffffffffffffffffffffff021916908373ffffffffffffffffffffffffffffffffffffffff16021790555050565b6000600882604051602001610bd59190611b48565b6040516020818303038152906040528051906020012060001c901c9050919050565b610bff610d39565b73ffffffffffffffffffffffffffffffffffffffff16610c1d61079c565b73ffffffffffffffffffffffffffffffffffffffff1614610c73576040517f08c379a0000000000000000000000000000000000000000000000000000000008152600401610c6a90611bab565b60405180910390fd5b565b60008060009054906101000a900473ffffffffffffffffffffffffffffffffffffffff169050816000806101000a81548173ffffffffffffffffffffffffffffffffffffffff021916908373ffffffffffffffffffffffffffffffffffffffff1602179055508173ffffffffffffffffffffffffffffffffffffffff168173ffffffffffffffffffffffffffffffffffffffff167f8be0079c531659141344cd1fd0a4f28419497f9722a3daafe3b4186f6b6457e060405160405180910390a35050565b600033905090565b6000604051905090565b600080fd5b600080fd5b600073ffffffffffffffffffffffffffffffffffffffff82169050919050565b6000610d8082610d55565b9050919050565b610d9081610d75565b8114610d9b57600080fd5b50565b600081359050610dad81610d87565b92915050565b6000819050919050565b610dc681610db3565b8114610dd157600080fd5b50565b600081359050610de381610dbd565b92915050565b60008060408385031215610e0057610dff610d4b565b5b6000610e0e85828601610d9e565b9250506020610e1f85828601610dd4565b9150509250929050565b610e3281610db3565b82525050565b6000602082019050610e4d6000830184610e29565b92915050565b6000819050919050565b6000610e78610e73610e6e84610d55565b610e53565b610d55565b9050919050565b6000610e8a82610e5d565b9050919050565b6000610e9c82610e7f565b9050919050565b610eac81610e91565b82525050565b6000602082019050610ec76000830184610ea3565b92915050565b600080fd5b600081905082602060080282011115610eee57610eed610ecd565b5b92915050565b60008060008060006101808688031215610f1157610f10610d4b565b5b6000610f1f88828901610d9e565b9550506020610f3088828901610dd4565b9450506040610f4188828901610dd4565b9350506060610f5288828901610ed2565b925050610160610f6488828901610dd4565b9150509295509295909350565b610f7a81610d75565b82525050565b6000602082019050610f956000830184610f71565b92915050565b600060208284031215610fb157610fb0610d4b565b5b6000610fbf84828501610d9e565b91505092915050565b600081519050919050565b600082825260208201905092915050565b6000819050602082019050919050565b610ffd81610db3565b82525050565b600061100f8383610ff4565b60208301905092915050565b6000602082019050919050565b600061103382610fc8565b61103d8185610fd3565b935061104883610fe4565b8060005b838110156110795781516110608882611003565b975061106b8361101b565b92505060018101905061104c565b5085935050505092915050565b600060208201905081810360008301526110a08184611028565b905092915050565b600080fd5b600080fd5b60008083601f8401126110c8576110c76110a8565b5b8235905067ffffffffffffffff8111156110e5576110e46110ad565b5b60208301915083602082028301111561110157611100610ecd565b5b9250929050565b600080fd5b60006060828403121561112357611122611108565b5b81905092915050565b60008060006040848603121561114557611144610d4b565b5b600084013567ffffffffffffffff81111561116357611162610d50565b5b61116f868287016110b2565b9350935050602084013567ffffffffffffffff81111561119257611191610d50565b5b61119e8682870161110d565b9150509250925092565b600082825260208201905092915050565b7f5265656e7472616e637947756172643a207265656e7472616e742063616c6c00600082015250565b60006111ef601f836111a8565b91506111fa826111b9565b602082019050919050565b6000602082019050818103600083015261121e816111e2565b9050919050565b60008151905061123481610d87565b92915050565b6000602082840312156112505761124f610d4b565b5b600061125e84828501611225565b91505092915050565b7f4e6f7420796f7572204e46540000000000000000000000000000000000000000600082015250565b600061129d600c836111a8565b91506112a882611267565b602082019050919050565b600060208201905081810360008301526112cc81611290565b9050919050565b60008160601b9050919050565b60006112eb826112d3565b9050919050565b60006112fd826112e0565b9050919050565b61131561131082610d75565b6112f2565b82525050565b60006113278284611304565b60148201915081905092915050565b82818337600083830152505050565b6113526101008383611336565b5050565b60006101a08201905061136c6000830189610e29565b6113796020830188610e29565b6113866040830187610e29565b6113936060830186610e29565b6113a06080830185610e29565b6113ad60a0830184611345565b979650505050505050565b600080fd5b6000601f19601f8301169050919050565b7f4e487b7100000000000000000000000000000000000000000000000000000000600052604160045260246000fd5b611406826113bd565b810181811067ffffffffffffffff82111715611425576114246113ce565b5b80604052505050565b6000611438610d41565b905061144482826113fd565b919050565b600080fd5b600080fd5b600067ffffffffffffffff82111561146e5761146d6113ce565b5b611477826113bd565b9050602081019050919050565b60005b838110156114a2578082015181840152602081019050611487565b838111156114b1576000848401525b50505050565b60006114ca6114c584611453565b61142e565b9050828152602081018484840111156114e6576114e561144e565b5b6114f1848285611484565b509392505050565b600082601f83011261150e5761150d6110a8565b5b815161151e8482602086016114b7565b91505092915050565b60008151905061153681610dbd565b92915050565b600060608284031215611552576115516113b8565b5b61155c606061142e565b9050600082015167ffffffffffffffff81111561157c5761157b611449565b5b611588848285016114f9565b600083015250602082015167ffffffffffffffff8111156115ac576115ab611449565b5b6115b8848285016114f9565b60208301525060406115cc84828501611527565b60408301525092915050565b6000602082840312156115ee576115ed610d4b565b5b600082015167ffffffffffffffff81111561160c5761160b610d50565b5b6116188482850161153c565b91505092915050565b600081905092915050565b50565b600061163c600083611621565b91506116478261162c565b600082019050919050565b600061165d8261162f565b9150819050919050565b7f4661696c656420746f2073656e642076616c7565000000000000000000000000600082015250565b600061169d6014836111a8565b91506116a882611667565b602082019050919050565b600060208201905081810360008301526116cc81611690565b9050919050565b7f596f75206e65656420746f206164642061646472657373657300000000000000600082015250565b60006117096019836111a8565b9150611714826116d3565b602082019050919050565b60006020820190508181036000830152611738816116fc565b9050919050565b7f4e487b7100000000000000000000000000000000000000000000000000000000600052601160045260246000fd5b600061177982610db3565b915061178483610db3565b9250817fffffffffffffffffffffffffffffffffffffffffffffffffffffffffffffffff04831182151516156117bd576117bc61173f565b5b828202905092915050565b7f4e6f7420656e6f7567682066756e647300000000000000000000000000000000600082015250565b60006117fe6010836111a8565b9150611809826117c8565b602082019050919050565b6000602082019050818103600083015261182d816117f1565b9050919050565b7f4e487b7100000000000000000000000000000000000000000000000000000000600052603260045260246000fd5b600061186e82610db3565b915061187983610db3565b9250827fffffffffffffffffffffffffffffffffffffffffffffffffffffffffffffffff038211156118ae576118ad61173f565b5b828201905092915050565b600080fd5b600080fd5b600080fd5b600080833560016020038436030381126118e5576118e46118c3565b5b83810192508235915060208301925067ffffffffffffffff82111561190d5761190c6118b9565b5b600182023603841315611923576119226118be565b5b509250929050565b600082825260208201905092915050565b6000611948838561192b565b9350611955838584611336565b61195e836113bd565b840190509392505050565b60006119786020840184610dd4565b905092915050565b60006060830161199360008401846118c8565b85830360008701526119a683828461193c565b925050506119b760208401846118c8565b85830360208701526119ca83828461193c565b925050506119db6040840184611969565b6119e86040860182610ff4565b508091505092915050565b6000606082019050611a086000830186610f71565b611a156020830185610e29565b8181036040830152611a278184611980565b9050949350505050565b6000611a3c82610db3565b91507fffffffffffffffffffffffffffffffffffffffffffffffffffffffffffffffff821415611a6f57611a6e61173f565b5b600182019050919050565b7f4f776e61626c653a206e6577206f776e657220697320746865207a65726f206160008201527f6464726573730000000000000000000000000000000000000000000000000000602082015250565b6000611ad66026836111a8565b9150611ae182611a7a565b604082019050919050565b60006020820190508181036000830152611b0581611ac9565b9050919050565b600081519050919050565b6000611b2282611b0c565b611b2c8185611621565b9350611b3c818560208601611484565b80840191505092915050565b6000611b548284611b17565b915081905092915050565b7f4f776e61626c653a2063616c6c6572206973206e6f7420746865206f776e6572600082015250565b6000611b956020836111a8565b9150611ba082611b5f565b602082019050919050565b60006020820190508181036000830152611bc481611b88565b905091905056fea2646970667358221220f33580048a1132b020d17eeb1a3b8c55a483fe9cceefb63a7b121cab8c314ff464736f6c63430008080033",
  "linkReferences": {},
  "deployedLinkReferences": {}
}